:100000000C9428010C9445010C9445010C94450175
:100010000C9445010C9445010C9445010C94450148
:100020000C9445010C9445010C9445010C94450138
:100030000C9445010C9445010C9445010C94BF0EA1
:100040000C9445010C9445010C9445010C94450118
:100050000C9445010C9445010C9445010C94B8098D
:100060000C9445010C9445010C9445010C944501F8
:100070000C9445010000000000C6186380014A2965
:100080000000004A7DF59502C417471F0163222234
:1000900032062615519305860800000088082108BD
:1000A000028220848800805457090080904F080005
:1000B000000060880000800F00000000008C01003C
:1000C000222202002EE63AA303C4104288032E42E5
:1000D00044C4072E4207A30388A9F411023F8407F2
:1000E000A3032E8617A3033F424408012E4617A3FD
:1000F000032E460FA303C018600C00C018608800D0
:100100008888200802007CF0010082208888002E68
:10011000424400012E425BAB0344C51F63042FC65B
:1001200017E3032E8610A2032FC618E3033F84179C
:10013000C2073F841742002E861EA30731C61F63E5
:10014000048E10428803104218A3033195515204C3
:10015000218410C20771D71A630471D61C63042E60
:10016000C618A3032FC61742002EC65893052FC6E4
:100170001763042E0607A3039F1042080131C61817
:10018000A30331C618150131C65AAB02312AA26247
:1001900004312A4208011F2222C207278410C2010B
:1001A00020088220000E21849003444500000000B6
:1001B0000000C00782200000000038E8A30721B437
:1001C00019E30300B810A20310DA1CA30700B8F863
:1001D00083034C8A238400C0C7E8A10321B41963B8
:1001E000040418428803083084920121A4324A0290
:1001F000861042880300AC5A630400B419630400FB
:10020000B818A30300BCF8420000D8EC210400B4E5
:1002100019420000B8E0E003421C21240300C41886
:10022000B30500C418150100C45AAB02004445547C
:100230000400C4E8A103007C44C4078810410802FC
:100240008410420801821044880000888A0000005F
:1002500011241FBECFEFD4E0DEBFCDBF11E0A0E080
:10026000B1E0E2E8F1E202C005900D92A03AB107D8
:10027000D9F722E0A0EAB1E001C01D92AF31B20788
:10028000E1F70E94FA0E0C94BF100C940000EF925C
:10029000FF920F931F93CF93DF93CDB7DEB72B97CA
:1002A0000FB6F894DEBF0FBECDBF97E0E9E4F1E0F2
:1002B000DE01119601900D929A95E1F71886198644
:1002C0001A861B864AE0BE01695F7F4F90E00E945C
:1002D0000510CE0101960E948A030E94BE040E946E
:1002E00083040E946E06E12CF12C00E010E00E94D5
:1002F000B4040E94060480E00E948404882321F054
:1003000078010E946F0306C084E00E94D403882312
:1003100051F0F6CF0E191F090031174278F40E94F0
:100320007D068C01F7CF0E947D068C018E199F09F6
:100330008097E8F20E9473037801D9CF2B960FB60D
:10034000F894DEBF0FBECDBFDF91CF911F910F910B
:10035000FF90EF900895AF92BF92CF92EF92FF92ED
:100360000F931F93CF93DF93D62FC72F182FF42E01
:1003700059010E94CD042091E9013091EA01CC2479
:10038000C394E12C00E0A50164E670E08DEE91E0FD
:100390000E94B80B90930802809307026F2D0E9471
:1003A0008E0A612F80910702909108020E94920AA2
:1003B0006D2F7C2F80910702909108020E94710A94
:1003C000A3EAB1E0E8EAF1E085E08E0F11921D9218
:1003D0008E13FCCF1092A2011092A101DF91CF9158
:1003E0001F910F91FF90EF90CF90BF90AF90089525
:1003F000CF93DF934623D1F00E94E60F65E070E0D3
:100400000E944A0F26E0C5E0D0E090E0FC01E855EC
:10041000FE4F3081311103C081E0808307C021503D
:10042000D9F30296BE010E944A0FEFCFDF91CF9120
:10043000089581E09091A201911101C080E008959A
:100440008091A1010895E82FF0E0DF01A855BE4F8B
:100450008C918150863088F4ED55FE4F808181115A
:100460000CC081E080838091A2018F5F8093A20104
:100470008091A1018F5F8093A10108959091A201C5
:10048000A3EAB1E0E8EAF1E025E02E0F80818823BD
:1004900061F08F5F8A3010F4808307C010828C91E6
:1004A000882311F0911191501C92319611962E13C0
:1004B000EDCF9093A20108956091A001862F90E066
:1004C000FC01ED55FE4F2081222311F08FE70FC074
:1004D000FC01E855FE4F8081882359F0813039F0C6
:1004E000825093E001C0990F8A95EAF7892F0E9404
:1004F000EF048091A00190E0019665E070E00E9419
:100500004A0F8093A0010895CF92DF92EF92FF925D
:100510001F93CF93DF9300D0CDB7DEB70E946E0656
:100520004AE0BE016F5F7F4F83E090E00E940510BC
:10053000CE0101960E948A030E947503C12CD12C22
:1005400013E0115020F180E090E00E9478060E94B4
:100550007D067C0188EAE81681E6F80648F4C701C2
:100560008C199D09809798F30E9473036701EFCF60
:100570000E946F034AE0BE016F5F7F4F812F90E0C2
:100580000E940510CE0101960E947903DACF0F90E8
:100590000F90DF91CF911F91FF90EF90DF90CF9060
:1005A0000895CF93DF930E947D06EC019C012C1BE4
:1005B0003D0B2838334118F40E947D06F7CFDF91B8
:1005C000CF9108958091AD0190E063E070E00E94CA
:1005D000190F80509F4FFC01828108950F931F9344
:1005E000CF93DF938091AD0190E063E070E00E94D3
:1005F000190F80509F4FFC01808191810E948A03D6
:100600000E94BE040E9483040E946E0600E010E077
:10061000C0E0D0E00E94B4040E94060480E00E9482
:10062000D4038823B9F00E946F030E94D102809105
:10063000AD0190E00196817099278093AD0163E050
:1006400070E00E94190F80509F4FFC0180819181C2
:100650000E94790382E00E94D4038823B9F00E94AB
:100660006F030E94D1028091AD0190E001968170EC
:1006700099278093AD0163E070E00E94190F8050CC
:100680009F4FFC01808191810E94790380E00E944C
:100690008404882321F08E010E946F0306C084E049
:1006A0000E94D403882351F0F6CFC01BD10BC03178
:1006B000D74280F40E947D06EC01F7CF0E947D06B0
:1006C000EC01801B910B809708F4A4CF0E94730368
:1006D0008E01A0CFDF91CF911F910F9108950E94BD
:1006E0009B070C94C0080C94C00880E090E00C9428
:1006F000B108CF93DF9300D0CDB7DEB789839A835B
:100700000E949B0789819A810F900F90DF91CF9172
:100710000C949C08CF93DF93EC0188EE93E00E9449
:100720003C0984E591E00E94BB0882E10E94AB088D
:1007300081E090E00E94B108CE01DF91CF910C944E
:100740009C086230710511F168F46130710551F552
:10075000FC01FF2724A1892F8095922F982394A331
:1007600095A112C06330710541F064307105D1F478
:10077000FC01FF2784A1892B0FC0FC01FF2784A166
:10078000892B84A385A19095892309C0FC01FF27AB
:1007900024A1892F8095822384A385A1892B85A3F9
:1007A00081E0089580E00895E82FF0E0EE0FFF1F4C
:1007B000E255FE4F8081882321F0918181E08927D5
:1007C00002C080E090E081700895E82FF0E0EE0F25
:1007D000FF1FE255FE4F8081811102C0818102C05E
:1007E00080E090E081700895E82FF0E0EE0FFF1FA9
:1007F000E255FE4F80810895E82FF0E0EE0FFF1FD5
:10080000E255FE4F908181E0892708956F927F9293
:100810008F929F92AF92BF92CF92DF92EF92FF9210
:100820000F931F93CF93DF9300D0CDB7DEB72EEA9F
:10083000622E21E0722E3AE5C32E31E0D32E812CB8
:1008400046E0942EF30180818183F601019111919C
:100850006F015801BB24F50184A1E12EFF2425A1DD
:1008600030E02E213F2141E0232B09F440E090E0CD
:100870008E219F21892B29F0411108C023E030E00F
:100880000AC0411106C021E030E005C024E030E09C
:1008900002C022E030E064E070E0C80129833A83BE
:1008A0000E94A10362E070E0C8010E94A103892DAB
:1008B0008A95F1F7F50183A190E0E822F92281E021
:1008C00029813A81EF2809F080E0F3018083B901A2
:1008D000C8010E94A1038394F2E06F0E711C85E0B1
:1008E0008812B0CF0F900F90DF91CF911F910F9191
:1008F000FF90EF90DF90CF90BF90AF909F908F9040
:100900007F906F900895089581110DC08091B80176
:10091000882329F09091B90181E0892702C080E005
:1009200090E08170089580E0089581110BC080915E
:10093000B801811103C08091B90102C080E090E04C
:100940008170089580E00895811103C08091B801FD
:10095000089580E00895811105C09091B80181E06B
:100960008927089580E00895E8EBF1E08081818394
:1009700089B1881F8827881F8083089557985F98BA
:1009800008959C01FC01FF2784A1832B84A395A1DA
:10099000892F832B85A381E00895CF93DF93CEE643
:1009A000D1E0899199910E94C10481E0CC37D807A8
:1009B000C1F783E090E40E94C10480E090E80E94C7
:1009C000C10483E090E10E94C10483E090E80E94AA
:1009D000C10483E090E2DF91CF910C94C104E091D7
:1009E000BA01F0E0EE0FFF1FEC59FE4F208131817C
:1009F000F901FF2795A1932B95A3EEE6F1E097E08F
:100A000020813181D901BB2795962C91959780FF44
:100A100003C03095232301C0232B95962C938695F4
:100A2000915032969111ECCFE62FF0E0EE0FFF1FC0
:100A3000EC59FE4F80819181FC01FF2785A19095A3
:100A4000892385A36093BA010895CF93DF931F9202
:100A5000CDB7DEB79E012F5F3F4F45E06CE771E0F9
:100A60000E94350691E0980F90930601998191506C
:100A700097BD18BC95B5977039F095B520910601D2
:100A80002770987F922B95BD298130E0E82FF0E008
:100A9000E458FE4FC901008002C0880F991F0A94D4
:100AA000E2F70F90DF91CF91089585B3897F85BBE1
:100AB00085B5909106019770887F892B85BD089533
:100AC00085B5887F85BD089585B382FB882780F929
:100AD0000895009719F0019741F0089584B5629543
:100AE000660F660F607C8F7305C084B56370629576
:100AF000607F8F7C682B64BD0895009741F001975B
:100B000059F484B58E7F84BD84B5826002C084B5FB
:100B10008C7F84BD81E0089580E0089514BC15BCED
:100B200016BC18BC84B58E7F84BD84B5826084BD3C
:100B300081E008959C01215031093093CD0081500E
:100B40008093CC000895CF93DF93EC018881998145
:100B50000E949A058A819BEF980F943008F088E0F4
:100B600098E19093C9008550880F8093CA0081E076
:100B7000DF91CF9108958091C800881F8827881F32
:100B800008958091C80085FB882780F90895809199
:100B9000C80086FB882780F90895CF93C82F0E944C
:100BA000C1058823E1F39091C80090649093C80038
:100BB000C093CE00CF9108958091C80087FFFCCFED
:100BC0008091CE000895CF93DF93EC018991882323
:100BD00019F00E94CD05FACFDF91CF9108950C94C2
:100BE000BB050C94DC050C94C1050C94C7050C9452
:100BF000CD050E94CD050E94C7058823E1F38CE254
:100C000091E00197F1F70E94BB0581110C94F10569
:100C100008950C94E305CF93DF9300D01F92CDB7D6
:100C2000DEB780ED90E09A83898388E08B83509AC9
:100C3000589A0E948E058FE690E00E94250581E07B
:100C400090E00E947D0561E070E081E090E00E940C
:100C500069050E945505CE0101960E94A3050F90DB
:100C60000F900F90DF91CF910895CF93DF93DC0128
:100C7000562FFB0160E070E0C1E0D0E08E2F851BB5
:100C80008417B8F49191BE01092E02C0660F771F38
:100C90000A94E2F76F5F7F4F769567956A0F7B1F27
:100CA00002C0769567959A95E2F76F3F710509F056
:100CB00028F7F9016083DF91CF910895E1E6F0E034
:100CC00080E880831082A89584B7877F84BFE0E6A0
:100CD000F0E0808188618083108208951092800006
:100CE00084E0809381001092850010928400089522
:100CF0009093850080938400089580918400909162
:100D000085000895AC0180918400909185009C013C
:100D1000241B350B283E3340B0F708952091840002
:100D200030918500820F931F0C948206853098F4D1
:100D3000673088F421E030E001C0220F6A95EAF7BD
:100D4000E82FF0E0E454FE4F922F909580818923A4
:100D50004111822B80830895853080F4673070F4D0
:100D6000E82FF0E0E454FE4F81E090E001C0880FEE
:100D70006A95EAF79081982381E009F480E008956C
:100D80006091BB01E62FF0E0E454FE4F80810E94A9
:100D9000EF048091BB018F5F853018F48093BB0115
:100DA00008951092BB010895ECEBF1E010821182DE
:100DB00012821382148208950E94CD040C94D406EA
:100DC00041E0611101C040E0692F0C949606692F43
:100DD0000C94AC0641E0611101C040E0692F0C9415
:100DE00096064F925F926F927F928F929F92AF92F0
:100DF000BF92CF92DF92EF92FF920F931F93CF9308
:100E0000DF931F92CDB7DEB7862E942E5C01E62EBF
:100E1000F72E262F660F330B281B310987FD3395DC
:100E2000072F072E000C110B091B110997FD1395B5
:100E300037FF03C077247A9402C07724739417FF96
:100E400003C066246A9402C066246394290137FFB4
:100E500003C051944194510817FF03C011950195A7
:100E6000110940165106A4F06201D594C794F92ED9
:100E7000A81421F1692D8A2D9F2D0E94EA06C01A1F
:100E8000D10AD7FE03C0C40CD51CF60CA70CF0CFBA
:100E90006801D594C794E82EB71681F0692D8E2D80
:100EA0009B2D79830E94EA06C418D5087981D7FE64
:100EB00003C0C00ED11EE70CB60CEECF692DC701E2
:100EC0000F90DF91CF911F910F91FF90EF90DF90E6
:100ED000CF90BF90AF909F908F907F906F905F90DA
:100EE0004F900C94EA06FF920F931F93CF93DF93DA
:100EF000D82FF92E162FC72F042F792F0E94F10615
:100F0000402F6D2F7C2F8D2F9F2D0E94F106402F9B
:100F1000612F7C2F812F9F2D0E94F106402F612F82
:100F20007C2F8D2F9C2F0E94F106DF91CF911F9176
:100F30000F91FF9008950E94D406E7E0F1E0118A36
:100F400014860895DF92EF92FF920F931F93CF9331
:100F5000DF93D82E7B01162F0F2D809109019091E0
:100F60000A01C0E00197A1F50F2D0C1BE0910F01C4
:100F7000F09110018181C817C0F4D0E080910F0179
:100F800090911001FC012281D21768F42D2F4C2F73
:100F90006D2D0E946109682F8D2F8E0D902F0E945C
:100FA000EA06DF5FEBCFCF5FDFCFC0E0E0910F015C
:100FB000F09110018281C81740F460E08C2F8E0DF3
:100FC000902F0E94EA06CF5FF1CF015031C0CF5F72
:100FD0001C2F1E0DE0910F01F09110018181C817A7
:100FE000B0F4D0E080910F0190911001FC012281BA
:100FF000D21768F72D2F4C2F6D2D0E946109682F95
:10100000812F9D2F9F0D0E94EA06DF5FEBCFC0E08E
:10101000E0910F01F09110018281C81740F460E067
:10102000812F9C2F9F0D0E94EA06CF5FF1CF1F5F9B
:10103000812F902FDF91CF911F910F91FF90EF9013
:10104000DF9008951F93CF93DF93182FEC018C2F1F
:10105000811B9991992351F0892F0E94A207BC010D
:101060008C2F811B653014F477FFF1CFDF91CF9186
:101070001F9108950F931F93CF93DF93EC019B0172
:1010800010921301409314011092170100910F0167
:10109000109110010115110509F449C0F801818171
:1010A00060910D0170910E0190E00E94190FBC013A
:1010B00080911101909112010E94360FCB016AE0DC
:1010C00070E00E94190F90931601809315013093E0
:1010D0000C0120930B0140E250E0BE0188E191E059
:1010E0000E94F60F80910701909108010197F9F491
:1010F000FE0101900020E9F7CF010197F8019181ED
:10110000692F70E06F5F7F4F8C1B0E94100F815022
:101110002091090130910A012130310511F095E04B
:1011200001C097E0981718F48EEF80931701DF91B4
:10113000CF911F910F9108952091090130910A01DB
:101140002130310511F070E001C076E04FEF60E032
:101150000E943A08089590E090930E0180930D014B
:1011600008959093080180930701089590930A01D0
:101170008093090108959093100180930F010895C1
:101180008091C1019091C20101969093C201809318
:10119000C10120911501309116018217930708F4BF
:1011A00069C01092C2011092C101E0911301F0E0F8
:1011B000E95FFE4F818981110AC08091140182305C
:1011C00008F458C08150809314011092130180914B
:1011D000130190E0FC01E95FFE4F2189222309F40D
:1011E00049C0409107015091080120911701411514
:1011F000510521F04130510599F024C0211122C040
:1012000060910B0170910C01885E9E4F0E94220834
:1012100090E0019790911301890F8093130112C000
:1012200060910B0170910C014091090150910A01EC
:101230004130510511F4720F01C0621B885E9E4F50
:101240000E942208809117018F5F80931701082E5A
:10125000000C990BE0910F01F0911001218130E019
:10126000281739073CF410921701809113018F5F02
:10127000809313010C94C006CF93DF93C7E0D1E0B5
:101280009B878A870E94DC0684E190E09F838E839F
:10129000DF91CF910C949B07009789F0FC0123818B
:1012A000621B67FD09C0062E000C770B248130E01D
:1012B00081E0621773070CF080E08170089580E090
:1012C0000895CF93DF93DC01E62F822F1097B9F1B9
:1012D00011966C911197461790F512969C91129762
:1012E000291768F513969C911397E91BE7FD27C012
:1012F0000E2E000CFF0B1496CC911497D0E0EC1737
:10130000FD07ECF40E94100F480F15966C9170E0E9
:10131000CF010E94190F242F269526952695820F1E
:10132000911DFC01EC58FF4FE4918E2F90E0477027
:1013300002C0959587954A95E2F7817001C080E0DB
:10134000DF91CF9108950E947D060E94EB0F80E00F
:1013500090E00E9478060E943F0C805D0C94F90595
:101360001092C3010C943B0A0E940B060C94470A8E
:101370001F920F920FB60F9211242F933F934F930A
:101380005F936F937F938F939F93AF93BF93CF930D
:10139000DF93EF93FF930E94F105C82F0E94480C42
:1013A000D82F813049F118F08230E9F151C0C233B1
:1013B00008F04EC082E00E94420C0E947D060E940E
:1013C000EB0F80E090E00E94780681E08C0F0E9495
:1013D000F90580ED8C0F0E943C0C0E943F0C90E0C0
:1013E0006BE070E00E94190F875F9D4FFC018081C8
:1013F00091810E9479032CC00E943F0C282F8C2FD2
:1014000090E0C09730E02F5F3F4F8217930701F5C0
:1014100080E090E00E9478068FEF8C0F0E94F90523
:10142000D093C30113C00E943F0C2C2F30E02053F7
:10143000310990E02817390759F40E947D069695E6
:1014400087950E94780681E08093C3010E94410A3B
:10145000FF91EF91DF91CF91BF91AF919F918F91CC
:101460007F916F915F914F913F912F910F900FBEA0
:101470000F901F901895E9ECF0E0808180688083E0
:101480000895E9ECF0E080818F77808308950E94D1
:101490003B0A78940895FC018589968960EF70E095
:1014A0000E94190F9C018685648570E090E00E947F
:1014B000190FBC01660F771F660F771FC9010E94C5
:1014C000360F63830895CF93DF93EC01E989FA899E
:1014D00040E06D858B899C8909951D86DF91CF91B0
:1014E0000895CF93DF93EC0178876F837E836D83BC
:1014F0001A8619861B8684E08C87CE010E944B0ACF
:10150000CE010E94630A198218826B818F890E9422
:10151000100F8F5F8A83DF91CF910895FC0166875A
:101520000C944B0AFC01608B0895FC0167870895B9
:1015300021E0FC0185819681892B09F420E0822F2E
:101540000895DC011596ED91FC91169781E090814C
:10155000911180E00895EF92FF920F931F93CF9324
:10156000DF93EC010D811E810115110509F4F9C00D
:1015700088819981009779F0019799838883892BD5
:1015800009F0EFC0CE01DF91CF911F910F91FF9035
:10159000EF900C94630A8A81882309F4E2C0815099
:1015A0008A838111DEC0D801EC91E11104C0CE0123
:1015B0000E94630AD4C071E0D80111968C911197F2
:1015C000833219F070E0119602C0D80112964C9146
:1015D0004B3211F04D3211F4119601C040E09D01E3
:1015E00050E080E089012F5F3F4FD8019C9160ED72
:1015F000690F6A3038F46AE00E94100F8053890F37
:1016000051E0F0CFEE33F1F094F4EA3209F447C040
:101610002CF4E03209F0A3C0F12C66C0EA3331F1BA
:10162000EC3309F09CC01A8709871B86BCCFE834CD
:1016300034F4E1340CF040C0E034B1F190C0EB354B
:10164000C1F08DC02B852F5F2B87811101C082E0F7
:10165000022E000C330B90E0281739070CF0A3CFB3
:1016600009851A850115110509F09DCF0F8118858F
:101670009ACF2B85022E000C330B90E00197281790
:10168000390709F490CFF8018F018191882309F47B
:101690008ACF8B3509F487CF8E33B1F784CF882377
:1016A00009F481CF8C8704C0882309F47CCF8E870E
:1016B000CE010E944B0A77CF0E2E000CFF0BE05C90
:1016C000FE4F908171119F5F5111888B4B3211F445
:1016D000945F03C04D3209F49C5088898F5F6CE0A1
:1016E0000E94100FF92EF80EF80191E0901B3E2F8A
:1016F0002F2F692F6E0F81918F32C9F3032F122F75
:10170000E62EEE0CEE0C8E3231F48E2D8695E80E20
:101710000F5F1F4F05C08C3219F40F5F1F4FE69407
:10172000898D882341F0E989FA894F856F2D8B894E
:101730009C89099507C0888D8111F5CF0E941902F7
:101740008111F1CFFD862C812A838B816E2D70E073
:1017500090E00E94190F821B9109998388831E8350
:101760000D83DF91CF911F910F91FF90EF9008951E
:10177000CF92EF920F93FC01CB01768B658B528B4E
:10178000418B348B238B078BE08EC18E24E6278719
:10179000158624E0208B11821082128262E370E0B1
:1017A0000E94190F68EE73E00E94360F648324874D
:1017B00088EC8687CF010F91EF90CF900895CF925C
:1017C000DF92EF92FF920F931F93CF93DF93D62F69
:1017D000C72F182FD92EF42EA9012091E90130919D
:1017E000EA01C12CE02E07E064E670E08FEC91E0A6
:1017F0000E94B80B9093EC018093EB018D2D0E9419
:10180000880E6F2D8091EB019091EC010E948E0A61
:10181000612F8091EB019091EC010E94920A6D2F53
:101820007C2F8091EB019091EC01DF91CF911F9182
:101830000F91FF90EF90DF90CF900C94710A809100
:10184000EB019091EC010E94AB0A8091070290910C
:1018500008020C94AB0ACF93DF930E947D06EC0143
:101860009C012C1B3D0B2838334118F40E947D0647
:10187000F7CFDF91CF9108958093C40108958091AF
:10188000C401089590E09093C6018093C501089526
:101890008091C5010895EF92FF920F931F93CF930C
:1018A000DF931092C6011092C5010E94B009809189
:1018B000C40190E06BE070E00E94190F875F9D4FBC
:1018C000FC01808191810E948A030E94B4090E94D8
:1018D000BE040E9483040E946E0600E010E0EE2425
:1018E000E394F12C0E947D06EC018091C3018823D2
:1018F00029F0C131F7E2DF0708F085C02091C5016A
:101900003091C601232B61F0C13593ECD90740F02B
:10191000811106C01092C6011092C5010E94B00943
:101920008091C5019091C601892B09F062C00E9487
:10193000B4040E94060484E00E94D403882331F09A
:10194000F092C601E092C5010E94A30980E00E94C6
:10195000D4038823B9F00E946F030E942B0C80915E
:10196000C40190E00196817099278093C4016BE0D7
:1019700070E00E94190F875F9D4FFC01808191816B
:101980000E94790382E00E94D4038823C9F00E9458
:101990006F030E942B0C2091C40130E02F5F3F4F5A
:1019A000C901817099278093C4016BE070E00E94A7
:1019B000190F875F9D4FFC01808191810E947903FF
:1019C00080E00E9484048823A1F00E946F030E949B
:1019D0002B0C0E94EE028091C40190E06BE070E05D
:1019E0000E94190F875F9D4FFC01808191810E94A9
:1019F0007903CE01801B910B809708F473CF0E946E
:101A000073038E016FCFDF91CF911F910F91FF90E4
:101A1000EF9008950C946E06FF920F931F93CF934F
:101A2000DF93182F092FF62E0E947D0681E0809308
:101A3000C701C12FD02F8091C701882389F18E81E2
:101A40009F810E948206E881F9818A819B810995A4
:101A50008E819F812C813D81280F391F3F832E83EA
:101A60000E947D06E12FF02FAFEFBFEF40E04F1552
:101A700011F326813781BC01621B730B9B012F3F41
:101A80007FE7370710F4EF01D6CF31952195310963
:101A90002A173B0710F4D901EF014F5F3896E7CFC3
:101AA000DF91CF911F910F91FF9008951092C70180
:101AB00008950C9483040E94060480E00E94D403DD
:101AC000882319F080E00E94230283E00E94D4035F
:101AD000882319F081E00E94230284E00E94D4034D
:101AE000882319F082E00E94230281E00E94D4033F
:101AF000882319F083E00E94230282E00E94D4032D
:101B0000882319F084E00C94230208950E94B40401
:101B100080E00E94840481110E94560D8091EB01A7
:101B20009091EC010E94A10A882351F00E94560D69
:101B30000E94E202811104C00E9420020C9447011D
:101B400008958F929F92AF92BF92CF92DF92EF92C1
:101B5000FF920F931F93CF93DF93CDB7DEB7E39739
:101B60000FB6F894DEBF0FBECDBF362F90E06BE00E
:101B700070E00E94190F875F9D4F2BE0FC01DE0192
:101B8000999601900D922A95E1F7FC01128131306E
:101B900029F4CCA4DDA4EEA4FFA404C0C8A8D9A84D
:101BA000EAA8FBA8CE0101965C0188E2F50111923A
:101BB0008A95E9F78FE19CE09A83898388E3882EF0
:101BC000992493949E828D828EE392E09A878987EE
:101BD000812F90E06FE070E00E944A0F9B01770F29
:101BE000440B550B62E17AE780E090E00E945E0FC3
:101BF0003E872D878CE592E09A8B898B86E090E07A
:101C00009E8B8D8B8BE59DE09A8F898F9E8E8D8E1E
:101C100086E89DE09AA389A382EE94E09EA38DA31B
:101C20000E94BE040E94590D0E94AE0E0E94E20264
:101C300001E0811101C000E02BE43EE0412FC7012B
:101C4000B6010E94DF0B28EF31E0412FC701B6013A
:101C50000E94AB010E940A0D0E948B0E65E0C50137
:101C60000E940C0D0E949A0EE3960FB6F894DEBF08
:101C70000FBECDBFDF91CF911F910F91FF90EF90DD
:101C8000DF90CF90BF90AF909F908F900895FC0110
:101C9000618342830895FC01662311F0411103C062
:101CA0001182128208956832D8F028ED260F822F13
:101CB0006CE00E942A0F382F64EF0E94100F820FF1
:101CC000A581B681A80FB11D8C91315010F0869579
:101CD000FCCF8183642F70E090E00E94190F928303
:101CE0000895FC0180818F5F80839181891708F0BE
:101CF000108281E020819281291708F080E0089508
:101D0000FC01748363835683458311821282089594
:101D1000809344010895F8948091440190E0909359
:101D2000890080938800EFE6F0E080818260808304
:101D30007894089540E060E08091E9019091EA0193
:101D40000E944B0EF894EFE6F0E080818D7F808357
:101D50005198599856985E987894089548E351E0C0
:101D600060E27EE488EC91E00E94800E9093EA01AC
:101D70008093E901519A5998569A5E9808951F9256
:101D80000F920FB60F9211242F933F934F935F93AF
:101D90006F937F938F939F93AF93BF93EF93FF9333
:101DA0008091E9019091EA010E94710E882319F057
:101DB000599A5E9802C059985E9A809188009091D5
:101DC000890020914401820F911D90938900809396
:101DD0008800FF91EF91BF91AF919F918F917F917B
:101DE0006F915F914F913F912F910F900FBE0F9088
:101DF0001F901895CF93DF931F92CDB7DEB70E9447
:101E00005E060E94EE020E944B0C0E9484020E9419
:101E1000480C89830E943F0C69810E94A10DF3CF79
:101E2000002480FD060E660F11F08695D1F7802DF7
:101E300008950024552704C0080E591F880F991FC4
:101E4000009729F076956795B8F37105B9F7802D5D
:101E5000952F0895991B79E004C0991F961708F0F3
:101E6000961B881F7A95C9F780950895AA1BBB1BFE
:101E700051E107C0AA1FBB1FA617B70710F0A61B8A
:101E8000B70B881F991F5A95A9F780959095BC01AB
:101E9000CD01089597FB072E16F4009407D077FD27
:101EA00009D00E94360F07FC05D03EF4909581952D
:101EB0009F4F0895709561957F4F0895052E97FB6C
:101EC0001EF400940E94750F57FD07D00E947D0FED
:101ED00007FC03D04EF40C94750F50954095309547
:101EE00021953F4F4F4F5F4F089590958095709586
:101EF00061957F4F8F4F9F4F0895A1E21A2EAA1B25
:101F0000BB1BFD010DC0AA1FBB1FEE1FFF1FA217A9
:101F1000B307E407F50720F0A21BB30BE40BF50BA6
:101F2000661F771F881F991F1A9469F7609570952F
:101F3000809590959B01AC01BD01CF010895A0E073
:101F4000B0E0E5EAFFE00C946010EC016881798173
:101F50008A819B81611571058105910521F464E2F7
:101F600079ED8BE597E02DE133EF41E050E00E9401
:101F70005E0F49015A0127EA31E440E050E00E9437
:101F80003A1069017A01C501B4012CEE34EF4FEF2C
:101F90005FEF0E943A10022F132F9A01D701C6015A
:101FA000800F911FA21FB31FB7FF03C00197A109A4
:101FB000B04888839983AA83BB839F77CDB7DEB768
:101FC000ECE00C947C100E949F0F089585E491E052
:101FD0000E949F0F0895A0E0B0E080934501909388
:101FE0004601A0934701B09348010895FB01DC012D
:101FF0004150504048F001900D920020C9F701C0B7
:102000001D9241505040E0F70895BB274A3031F40B
:10201000992322F4BDE2909581959F4F0C94111065
:10202000BB27FB015527AA27880F991FAA1FA417B2
:1020300010F0A41B83955051B9F7A05DAA3308F0A6
:10204000A95DA193009779F7B111B1931192CB01DA
:102050000C942A10DC01FC01672F71917723E1F7C2
:10206000329704C07C916D9370836291AE17BF0765
:10207000C8F3089568940013E894A0E0B0E0E3E4A6
:10208000F0E10C946210EFEFE7F959016A015E2369
:10209000550FEE08FE2C87019B01AC019E23990F82
:1020A000660B762FCB010E949110CDB7DEB7EAE028
:1020B0000C947E102F923F924F925F926F927F927C
:1020C0008F929F92AF92BF92CF92DF92EF92FF9248
:1020D0000F931F93CF93DF93CDB7DEB7CA1BDB0BF4
:1020E0000FB6F894DEBF0FBECDBF09942A88398899
:1020F00048885F846E847D848C849B84AA84B984A0
:10210000C884DF80EE80FD800C811B81AA81B981AB
:10211000CE0FD11D0FB6F894DEBF0FBECDBFED01BF
:102120000895DF93CF939F92A0E49A2E0024D001CC
:10213000E001F00116950795F794E794D794C794BA
:10214000B794A79448F41068A20FB31FC41FD51FFB
:10215000E61FF71F081E191E220F331F441F551FAD
:10216000661F771F881F991F9A9421F79D01AE0162
:10217000BF01C00111249F90CF91DF910895F89481
:02218000FFCF8F
:102182008801009501010100000000000014000018
:10219200000000000000000000000000000000003D
:1021A200000000000000000000000000000000002D
:1021B2000000000000000000F3E5D8CCC1B6ACA2DC
:1021C20099908881010100000053636F72652000BD
:1021D20000000000010507205F0503200080038046
:1021E20003400310034000800310038003200040DB
:1021F200002000100008000400020001000306088D
:102202000A090B00020405074E6F726D616C204DC6
:102212006F646520004175746F204D6F6465200006
:00000001FF
